{
  "contractName": "Avatheeers",
  "abi": [
    {
      "inputs": [],
      "stateMutability": "nonpayable",
      "type": "constructor"
    },
    {
      "anonymous": false,
      "inputs": [
        {
          "indexed": true,
          "internalType": "address",
          "name": "owner",
          "type": "address"
        },
        {
          "indexed": true,
          "internalType": "address",
          "name": "approved",
          "type": "address"
        },
        {
          "indexed": true,
          "internalType": "uint256",
          "name": "tokenId",
          "type": "uint256"
        }
      ],
      "name": "Approval",
      "type": "event"
    },
    {
      "anonymous": false,
      "inputs": [
        {
          "indexed": true,
          "internalType": "address",
          "name": "owner",
          "type": "address"
        },
        {
          "indexed": true,
          "internalType": "address",
          "name": "operator",
          "type": "address"
        },
        {
          "indexed": false,
          "internalType": "bool",
          "name": "approved",
          "type": "bool"
        }
      ],
      "name": "ApprovalForAll",
      "type": "event"
    },
    {
      "anonymous": false,
      "inputs": [
        {
          "indexed": true,
          "internalType": "address",
          "name": "from",
          "type": "address"
        },
        {
          "indexed": true,
          "internalType": "address",
          "name": "to",
          "type": "address"
        },
        {
          "indexed": true,
          "internalType": "uint256",
          "name": "tokenId",
          "type": "uint256"
        }
      ],
      "name": "Transfer",
      "type": "event"
    },
    {
      "inputs": [
        {
          "internalType": "uint256",
          "name": "",
          "type": "uint256"
        }
      ],
      "name": "avatheeerToOwner",
      "outputs": [
        {
          "internalType": "address",
          "name": "",
          "type": "address"
        }
      ],
      "stateMutability": "view",
      "type": "function",
      "constant": true
    },
    {
      "inputs": [
        {
          "internalType": "uint256",
          "name": "",
          "type": "uint256"
        }
      ],
      "name": "avatheeers",
      "outputs": [
        {
          "internalType": "string",
          "name": "name",
          "type": "string"
        },
        {
          "internalType": "uint256",
          "name": "dna",
          "type": "uint256"
        }
      ],
      "stateMutability": "view",
      "type": "function",
      "constant": true
    },
    {
      "inputs": [
        {
          "internalType": "uint256",
          "name": "",
          "type": "uint256"
        }
      ],
      "name": "dnaAvatheeerExists",
      "outputs": [
        {
          "internalType": "bool",
          "name": "",
          "type": "bool"
        }
      ],
      "stateMutability": "view",
      "type": "function",
      "constant": true
    },
    {
      "inputs": [
        {
          "internalType": "bytes32",
          "name": "",
          "type": "bytes32"
        }
      ],
      "name": "nonces",
      "outputs": [
        {
          "internalType": "uint256",
          "name": "",
          "type": "uint256"
        }
      ],
      "stateMutability": "view",
      "type": "function",
      "constant": true
    },
    {
      "inputs": [
        {
          "internalType": "address",
          "name": "",
          "type": "address"
        }
      ],
      "name": "ownerAvatheeerCount",
      "outputs": [
        {
          "internalType": "uint256",
          "name": "",
          "type": "uint256"
        }
      ],
      "stateMutability": "view",
      "type": "function",
      "constant": true
    },
    {
      "inputs": [
        {
          "internalType": "bytes32",
          "name": "requestId",
          "type": "bytes32"
        },
        {
          "internalType": "uint256",
          "name": "randomness",
          "type": "uint256"
        }
      ],
      "name": "rawFulfillRandomness",
      "outputs": [],
      "stateMutability": "nonpayable",
      "type": "function"
    },
    {
      "inputs": [
        {
          "internalType": "bytes32",
          "name": "",
          "type": "bytes32"
        }
      ],
      "name": "requestIdToName",
      "outputs": [
        {
          "internalType": "string",
          "name": "",
          "type": "string"
        }
      ],
      "stateMutability": "view",
      "type": "function",
      "constant": true
    },
    {
      "inputs": [
        {
          "internalType": "bytes32",
          "name": "_keyHash",
          "type": "bytes32"
        },
        {
          "internalType": "uint256",
          "name": "_fee",
          "type": "uint256"
        },
        {
          "internalType": "uint256",
          "name": "_seed",
          "type": "uint256"
        }
      ],
      "name": "requestRandomness",
      "outputs": [
        {
          "internalType": "bytes32",
          "name": "requestId",
          "type": "bytes32"
        }
      ],
      "stateMutability": "nonpayable",
      "type": "function"
    },
    {
      "inputs": [
        {
          "internalType": "bytes4",
          "name": "interfaceId",
          "type": "bytes4"
        }
      ],
      "name": "supportsInterface",
      "outputs": [
        {
          "internalType": "bool",
          "name": "",
          "type": "bool"
        }
      ],
      "stateMutability": "view",
      "type": "function",
      "constant": true
    },
    {
      "inputs": [
        {
          "internalType": "string",
          "name": "_name",
          "type": "string"
        }
      ],
      "name": "createAvatheeer",
      "outputs": [
        {
          "internalType": "bytes32",
          "name": "requestId",
          "type": "bytes32"
        }
      ],
      "stateMutability": "nonpayable",
      "type": "function"
    },
    {
      "inputs": [
        {
          "internalType": "address",
          "name": "_owner",
          "type": "address"
        }
      ],
      "name": "getAvatheeersByOwner",
      "outputs": [
        {
          "internalType": "uint256[]",
          "name": "",
          "type": "uint256[]"
        }
      ],
      "stateMutability": "view",
      "type": "function",
      "constant": true
    },
    {
      "inputs": [
        {
          "internalType": "address",
          "name": "_owner",
          "type": "address"
        }
      ],
      "name": "balanceOf",
      "outputs": [
        {
          "internalType": "uint256",
          "name": "_balance",
          "type": "uint256"
        }
      ],
      "stateMutability": "view",
      "type": "function",
      "constant": true
    },
    {
      "inputs": [
        {
          "internalType": "uint256",
          "name": "_avatheeerId",
          "type": "uint256"
        }
      ],
      "name": "ownerOf",
      "outputs": [
        {
          "internalType": "address",
          "name": "_owner",
          "type": "address"
        }
      ],
      "stateMutability": "view",
      "type": "function",
      "constant": true
    },
    {
      "inputs": [
        {
          "internalType": "address",
          "name": "_from",
          "type": "address"
        },
        {
          "internalType": "address",
          "name": "_to",
          "type": "address"
        },
        {
          "internalType": "uint256",
          "name": "_avatheeerId",
          "type": "uint256"
        }
      ],
      "name": "transferFrom",
      "outputs": [],
      "stateMutability": "nonpayable",
      "type": "function"
    },
    {
      "inputs": [
        {
          "internalType": "address",
          "name": "_to",
          "type": "address"
        },
        {
          "internalType": "uint256",
          "name": "_avatheeerId",
          "type": "uint256"
        }
      ],
      "name": "approve",
      "outputs": [],
      "stateMutability": "nonpayable",
      "type": "function"
    },
    {
      "inputs": [
        {
          "internalType": "uint256",
          "name": "_avatheeerId",
          "type": "uint256"
        }
      ],
      "name": "getApproved",
      "outputs": [
        {
          "internalType": "address",
          "name": "operator",
          "type": "address"
        }
      ],
      "stateMutability": "view",
      "type": "function",
      "constant": true
    },
    {
      "inputs": [
        {
          "internalType": "address",
          "name": "to",
          "type": "address"
        },
        {
          "internalType": "bool",
          "name": "approved",
          "type": "bool"
        }
      ],
      "name": "setApprovalForAll",
      "outputs": [],
      "stateMutability": "nonpayable",
      "type": "function"
    },
    {
      "inputs": [
        {
          "internalType": "address",
          "name": "owner",
          "type": "address"
        },
        {
          "internalType": "address",
          "name": "operator",
          "type": "address"
        }
      ],
      "name": "isApprovedForAll",
      "outputs": [
        {
          "internalType": "bool",
          "name": "",
          "type": "bool"
        }
      ],
      "stateMutability": "view",
      "type": "function",
      "constant": true
    },
    {
      "inputs": [
        {
          "internalType": "address",
          "name": "from",
          "type": "address"
        },
        {
          "internalType": "address",
          "name": "to",
          "type": "address"
        },
        {
          "internalType": "uint256",
          "name": "avatheeerId",
          "type": "uint256"
        }
      ],
      "name": "safeTransferFrom",
      "outputs": [],
      "stateMutability": "nonpayable",
      "type": "function"
    },
    {
      "inputs": [
        {
          "internalType": "address",
          "name": "from",
          "type": "address"
        },
        {
          "internalType": "address",
          "name": "to",
          "type": "address"
        },
        {
          "internalType": "uint256",
          "name": "avatheeerId",
          "type": "uint256"
        },
        {
          "internalType": "bytes",
          "name": "_data",
          "type": "bytes"
        }
      ],
      "name": "safeTransferFrom",
      "outputs": [],
      "stateMutability": "nonpayable",
      "type": "function"
    },
    {
      "inputs": [
        {
          "internalType": "uint256",
          "name": "_avatheeerId",
          "type": "uint256"
        }
      ],
      "name": "burn",
      "outputs": [],
      "stateMutability": "nonpayable",
      "type": "function"
    },
    {
      "inputs": [
        {
          "internalType": "uint256",
          "name": "_avatheeerId",
          "type": "uint256"
        }
      ],
      "name": "takeOwnership",
      "outputs": [],
      "stateMutability": "nonpayable",
      "type": "function"
    }
  ],
  "bytecode": "0x60c06040523480156200001157600080fd5b5073b3dccb4cf7a26f6cf6b120cf5a73875b7bbc655b7301be23585060835e02b77ef475b0cc51aa1e0709620000546301ffc9a760e01b6200010360201b60201c565b8173ffffffffffffffffffffffffffffffffffffffff1660a08173ffffffffffffffffffffffffffffffffffffffff1660601b815250508073ffffffffffffffffffffffffffffffffffffffff1660808173ffffffffffffffffffffffffffffffffffffffff1660601b8152505050507f2ed0feb3e7fd2022120aa84fab1945545a9f2ffc9076fd6156fa96eaff4c131160001b60028190555067016345785d8a00006003819055506200020c565b63ffffffff60e01b817bffffffffffffffffffffffffffffffffffffffffffffffffffffffff19161415620001a0576040517f08c379a000000000000000000000000000000000000000000000000000000000815260040180806020018281038252601c8152602001807f4552433136353a20696e76616c696420696e746572666163652069640000000081525060200191505060405180910390fd5b6001600080837bffffffffffffffffffffffffffffffffffffffffffffffffffffffff19167bffffffffffffffffffffffffffffffffffffffffffffffffffffffff1916815260200190815260200160002060006101000a81548160ff02191690831515021790555050565b60805160601c60a05160601c612e7e62000240600039806119445280611d16525080610e2b5280611cda5250612e7e6000f3fe608060405234801561001057600080fd5b50600436106101425760003560e01c80636352211e116100b8578063a22cb4651161007c578063a22cb465146107e2578063b2e6ceeb14610832578063b88d4fde14610860578063dc6cfe1014610965578063e985e9c5146109bb578063f961725214610a3757610142565b80636352211e1461064a57806370a08231146106b85780638ae04b381461071057806394985ddd146107685780639e317f12146107a057610142565b806323b872dd1161010a57806323b872dd146103de5780632f8fe5071461044c5780634085caef146104fa57806342842e0e1461054057806342966c68146105ae578063563065ea146105dc57610142565b806301ffc9a714610147578063081812fc146101ac578063095ea7b31461021a5780631189e4a314610268578063228b93b21461030f575b600080fd5b6101926004803603602081101561015d57600080fd5b8101908080357bffffffffffffffffffffffffffffffffffffffffffffffffffffffff19169060200190929190505050610ad0565b604051808215151515815260200191505060405180910390f35b6101d8600480360360208110156101c257600080fd5b8101908080359060200190929190505050610b37565b604051808273ffffffffffffffffffffffffffffffffffffffff1673ffffffffffffffffffffffffffffffffffffffff16815260200191505060405180910390f35b6102666004803603604081101561023057600080fd5b81019080803573ffffffffffffffffffffffffffffffffffffffff16906020019092919080359060200190929190505050610bef565b005b6102946004803603602081101561027e57600080fd5b8101908080359060200190929190505050610d74565b6040518080602001828103825283818151815260200191508051906020019080838360005b838110156102d45780820151818401526020810190506102b9565b50505050905090810190601f1680156103015780820380516001836020036101000a031916815260200191505b509250505060405180910390f35b6103c86004803603602081101561032557600080fd5b810190808035906020019064010000000081111561034257600080fd5b82018360208201111561035457600080fd5b8035906020019184600183028401116401000000008311171561037657600080fd5b91908080601f016020809104026020016040519081016040528093929190818152602001838380828437600081840152601f19601f820116905080830192505050505050509192919290505050610e24565b6040518082815260200191505060405180910390f35b61044a600480360360608110156103f457600080fd5b81019080803573ffffffffffffffffffffffffffffffffffffffff169060200190929190803573ffffffffffffffffffffffffffffffffffffffff16906020019092919080359060200190929190505050611015565b005b6104786004803603602081101561046257600080fd5b8101908080359060200190929190505050611443565b6040518080602001838152602001828103825284818151815260200191508051906020019080838360005b838110156104be5780820151818401526020810190506104a3565b50505050905090810190601f1680156104eb5780820380516001836020036101000a031916815260200191505b50935050505060405180910390f35b6105266004803603602081101561051057600080fd5b810190808035906020019092919050505061150c565b604051808215151515815260200191505060405180910390f35b6105ac6004803603606081101561055657600080fd5b81019080803573ffffffffffffffffffffffffffffffffffffffff169060200190929190803573ffffffffffffffffffffffffffffffffffffffff1690602001909291908035906020019092919050505061152c565b005b6105da600480360360208110156105c457600080fd5b810190808035906020019092919050505061154c565b005b610608600480360360208110156105f257600080fd5b81019080803590602001909291905050506117c9565b604051808273ffffffffffffffffffffffffffffffffffffffff1673ffffffffffffffffffffffffffffffffffffffff16815260200191505060405180910390f35b6106766004803603602081101561066057600080fd5b81019080803590602001909291905050506117fc565b604051808273ffffffffffffffffffffffffffffffffffffffff1673ffffffffffffffffffffffffffffffffffffffff16815260200191505060405180910390f35b6106fa600480360360208110156106ce57600080fd5b81019080803573ffffffffffffffffffffffffffffffffffffffff1690602001909291905050506118e1565b6040518082815260200191505060405180910390f35b6107526004803603602081101561072657600080fd5b81019080803573ffffffffffffffffffffffffffffffffffffffff16906020019092919050505061192a565b6040518082815260200191505060405180910390f35b61079e6004803603604081101561077e57600080fd5b810190808035906020019092919080359060200190929190505050611942565b005b6107cc600480360360208110156107b657600080fd5b8101908080359060200190929190505050611a11565b6040518082815260200191505060405180910390f35b610830600480360360408110156107f857600080fd5b81019080803573ffffffffffffffffffffffffffffffffffffffff169060200190929190803515159060200190929190505050611a29565b005b61085e6004803603602081101561084857600080fd5b8101908080359060200190929190505050611bcc565b005b6109636004803603608081101561087657600080fd5b81019080803573ffffffffffffffffffffffffffffffffffffffff169060200190929190803573ffffffffffffffffffffffffffffffffffffffff16906020019092919080359060200190929190803590602001906401000000008111156108dd57600080fd5b8201836020820111156108ef57600080fd5b8035906020019184600183028401116401000000008311171561091157600080fd5b91908080601f016020809104026020016040519081016040528093929190818152602001838380828437600081840152601f19601f820116905080830192505050505050509192919290505050611c64565b005b6109a56004803603606081101561097b57600080fd5b81019080803590602001909291908035906020019092919080359060200190929190505050611cd6565b6040518082815260200191505060405180910390f35b610a1d600480360360408110156109d157600080fd5b81019080803573ffffffffffffffffffffffffffffffffffffffff169060200190929190803573ffffffffffffffffffffffffffffffffffffffff169060200190929190505050611ee3565b604051808215151515815260200191505060405180910390f35b610a7960048036036020811015610a4d57600080fd5b81019080803573ffffffffffffffffffffffffffffffffffffffff169060200190929190505050611f77565b6040518080602001828103825283818151815260200191508051906020019060200280838360005b83811015610abc578082015181840152602081019050610aa1565b505050509050019250505060405180910390f35b6000806000837bffffffffffffffffffffffffffffffffffffffffffffffffffffffff19167bffffffffffffffffffffffffffffffffffffffffffffffffffffffff1916815260200190815260200160002060009054906101000a900460ff169050919050565b6000610b42826120bb565b610bb4576040517f08c379a00000000000000000000000000000000000000000000000000000000081526004018080602001828103825260198152602001807f41766174686565657220646f6573206e6f742065786973742e0000000000000081525060200191505060405180910390fd5b6009600083815260200190815260200160002060009054906101000a900473ffffffffffffffffffffffffffffffffffffffff169050919050565b6006600082815260200190815260200160002060009054906101000a900473ffffffffffffffffffffffffffffffffffffffff1673ffffffffffffffffffffffffffffffffffffffff163373ffffffffffffffffffffffffffffffffffffffff1614610cc3576040517f08c379a000000000000000000000000000000000000000000000000000000000815260040180806020018281038252601c8152602001807f4d7573742062652074686520417661746865656572206f776e65722e0000000081525060200191505060405180910390fd5b816009600083815260200190815260200160002060006101000a81548173ffffffffffffffffffffffffffffffffffffffff021916908373ffffffffffffffffffffffffffffffffffffffff160217905550808273ffffffffffffffffffffffffffffffffffffffff163373ffffffffffffffffffffffffffffffffffffffff167f8c5be1e5ebec7d5bd14f71427d1e84f3dd0314c0f7b2291e5b200ac8c7c3b92560405160405180910390a45050565b60056020528060005260406000206000915090508054600181600116156101000203166002900480601f016020809104026020016040519081016040528092919081815260200182805460018160011615610100020316600290048015610e1c5780601f10610df157610100808354040283529160200191610e1c565b820191906000526020600020905b815481529060010190602001808311610dff57829003601f168201915b505050505081565b60006003547f000000000000000000000000000000000000000000000000000000000000000073ffffffffffffffffffffffffffffffffffffffff166370a08231306040518263ffffffff1660e01b8152600401808273ffffffffffffffffffffffffffffffffffffffff1673ffffffffffffffffffffffffffffffffffffffff16815260200191505060206040518083038186803b158015610ec657600080fd5b505afa158015610eda573d6000803e3d6000fd5b505050506040513d6020811015610ef057600080fd5b810190808051906020019092919050505011610f57576040517f08c379a000000000000000000000000000000000000000000000000000000000815260040180806020018281038252602b815260200180612dd3602b913960400191505060405180910390fd5b6000826040516020018082805190602001908083835b60208310610f905780518252602082019150602081019050602083039250610f6d565b6001836020036101000a0380198251168184511680821785525050505050509050019150506040516020818303038152906040528051906020012060001c90506000610fe160025460035484611cd6565b90508360056000838152602001908152602001600020908051906020019061100a929190612d0c565b508092505050919050565b600073ffffffffffffffffffffffffffffffffffffffff168373ffffffffffffffffffffffffffffffffffffffff161415801561107f5750600073ffffffffffffffffffffffffffffffffffffffff168273ffffffffffffffffffffffffffffffffffffffff1614155b6110f1576040517f08c379a00000000000000000000000000000000000000000000000000000000081526004018080602001828103825260108152602001807f496e76616c696420616464726573732e0000000000000000000000000000000081525060200191505060405180910390fd5b6110fa816120bb565b61116c576040517f08c379a00000000000000000000000000000000000000000000000000000000081526004018080602001828103825260198152602001807f41766174686565657220646f6573206e6f742065786973742e0000000000000081525060200191505060405180910390fd5b8173ffffffffffffffffffffffffffffffffffffffff168373ffffffffffffffffffffffffffffffffffffffff1614156111f1576040517f08c379a0000000000000000000000000000000000000000000000000000000008152600401808060200182810382526024815260200180612dfe6024913960400191505060405180910390fd5b6111fb338261212d565b61126d576040517f08c379a00000000000000000000000000000000000000000000000000000000081526004018080602001828103825260188152602001807f41646472657373206973206e6f7420617070726f7665642e000000000000000081525060200191505060405180910390fd5b6112b7600760008473ffffffffffffffffffffffffffffffffffffffff1673ffffffffffffffffffffffffffffffffffffffff1681526020019081526020016000205460016121ed565b600760008473ffffffffffffffffffffffffffffffffffffffff1673ffffffffffffffffffffffffffffffffffffffff16815260200190815260200160002081905550611344600760008573ffffffffffffffffffffffffffffffffffffffff1673ffffffffffffffffffffffffffffffffffffffff168152602001908152602001600020546001612275565b600760008573ffffffffffffffffffffffffffffffffffffffff1673ffffffffffffffffffffffffffffffffffffffff16815260200190815260200160002081905550816006600083815260200190815260200160002060006101000a81548173ffffffffffffffffffffffffffffffffffffffff021916908373ffffffffffffffffffffffffffffffffffffffff160217905550808273ffffffffffffffffffffffffffffffffffffffff168473ffffffffffffffffffffffffffffffffffffffff167fddf252ad1be2c89b69c2b068fc378daa952ba7f163c4a11628f55a4df523b3ef60405160405180910390a461143e82826122bf565b505050565b6004818154811061145057fe5b9060005260206000209060020201600091509050806000018054600181600116156101000203166002900480601f0160208091040260200160405190810160405280929190818152602001828054600181600116156101000203166002900480156114fc5780601f106114d1576101008083540402835291602001916114fc565b820191906000526020600020905b8154815290600101906020018083116114df57829003601f168201915b5050505050908060010154905082565b60086020528060005260406000206000915054906101000a900460ff1681565b61154783838360405180602001604052806000815250611c64565b505050565b600073ffffffffffffffffffffffffffffffffffffffff163373ffffffffffffffffffffffffffffffffffffffff1614156115ef576040517f08c379a00000000000000000000000000000000000000000000000000000000081526004018080602001828103825260108152602001807f496e76616c696420616464726573732e0000000000000000000000000000000081525060200191505060405180910390fd5b6115f8816120bb565b61166a576040517f08c379a00000000000000000000000000000000000000000000000000000000081526004018080602001828103825260198152602001807f41766174686565657220646f6573206e6f742065786973742e0000000000000081525060200191505060405180910390fd5b611674338261212d565b6116e6576040517f08c379a00000000000000000000000000000000000000000000000000000000081526004018080602001828103825260188152602001807f41646472657373206973206e6f7420617070726f7665642e000000000000000081525060200191505060405180910390fd5b611730600760003373ffffffffffffffffffffffffffffffffffffffff1673ffffffffffffffffffffffffffffffffffffffff168152602001908152602001600020546001612275565b600760003373ffffffffffffffffffffffffffffffffffffffff1673ffffffffffffffffffffffffffffffffffffffff1681526020019081526020016000208190555060006006600083815260200190815260200160002060006101000a81548173ffffffffffffffffffffffffffffffffffffffff021916908373ffffffffffffffffffffffffffffffffffffffff16021790555050565b60066020528060005260406000206000915054906101000a900473ffffffffffffffffffffffffffffffffffffffff1681565b6000806006600084815260200190815260200160002060009054906101000a900473ffffffffffffffffffffffffffffffffffffffff169050600073ffffffffffffffffffffffffffffffffffffffff168173ffffffffffffffffffffffffffffffffffffffff1614156118d8576040517f08c379a00000000000000000000000000000000000000000000000000000000081526004018080602001828103825260158152602001807f496e76616c6964204176617468656565722049442e000000000000000000000081525060200191505060405180910390fd5b80915050919050565b6000600760008373ffffffffffffffffffffffffffffffffffffffff1673ffffffffffffffffffffffffffffffffffffffff168152602001908152602001600020549050919050565b60076020528060005260406000206000915090505481565b7f000000000000000000000000000000000000000000000000000000000000000073ffffffffffffffffffffffffffffffffffffffff163373ffffffffffffffffffffffffffffffffffffffff1614611a03576040517f08c379a000000000000000000000000000000000000000000000000000000000815260040180806020018281038252601f8152602001807f4f6e6c7920565246436f6f7264696e61746f722063616e2066756c66696c6c0081525060200191505060405180910390fd5b611a0d82826124cd565b5050565b60016020528060005260406000206000915090505481565b3373ffffffffffffffffffffffffffffffffffffffff168273ffffffffffffffffffffffffffffffffffffffff161415611acb576040517f08c379a000000000000000000000000000000000000000000000000000000000815260040180806020018281038252601a8152602001807f43616e6e6f7420617070726f7665206f776e206164647265737300000000000081525060200191505060405180910390fd5b80600a60003373ffffffffffffffffffffffffffffffffffffffff1673ffffffffffffffffffffffffffffffffffffffff16815260200190815260200160002060008473ffffffffffffffffffffffffffffffffffffffff1673ffffffffffffffffffffffffffffffffffffffff16815260200190815260200160002060006101000a81548160ff0219169083151502179055508173ffffffffffffffffffffffffffffffffffffffff163373ffffffffffffffffffffffffffffffffffffffff167f17307eab39ab6107e8899845ad3d59bd9653f200f220920489ca2b5937696c3183604051808215151515815260200191505060405180910390a35050565b611bd6338261212d565b611c48576040517f08c379a00000000000000000000000000000000000000000000000000000000081526004018080602001828103825260188152602001807f41646472657373206973206e6f7420617070726f7665642e000000000000000081525060200191505060405180910390fd5b6000611c53826117fc565b9050611c60813384611015565b5050565b611c6f848484611015565b611c7b8484848461259b565b611cd0576040517f08c379a0000000000000000000000000000000000000000000000000000000008152600401808060200182810382526021815260200180612db26021913960400191505060405180910390fd5b50505050565b60007f000000000000000000000000000000000000000000000000000000000000000073ffffffffffffffffffffffffffffffffffffffff16634000aea07f000000000000000000000000000000000000000000000000000000000000000085878660405160200180838152602001828152602001925050506040516020818303038152906040526040518463ffffffff1660e01b8152600401808473ffffffffffffffffffffffffffffffffffffffff1673ffffffffffffffffffffffffffffffffffffffff16815260200183815260200180602001828103825283818151815260200191508051906020019080838360005b83811015611de5578082015181840152602081019050611dca565b50505050905090810190601f168015611e125780820380516001836020036101000a031916815260200191505b50945050505050602060405180830381600087803b158015611e3357600080fd5b505af1158015611e47573d6000803e3d6000fd5b505050506040513d6020811015611e5d57600080fd5b8101908080519060200190929190505050506000611e90858430600160008a815260200190815260200160002054612784565b9050611eb86001806000888152602001908152602001600020546127fe90919063ffffffff16565b6001600087815260200190815260200160002081905550611ed98582612886565b9150509392505050565b6000600a60008473ffffffffffffffffffffffffffffffffffffffff1673ffffffffffffffffffffffffffffffffffffffff16815260200190815260200160002060008373ffffffffffffffffffffffffffffffffffffffff1673ffffffffffffffffffffffffffffffffffffffff16815260200190815260200160002060009054906101000a900460ff16905092915050565b606080600760008473ffffffffffffffffffffffffffffffffffffffff1673ffffffffffffffffffffffffffffffffffffffff1681526020019081526020016000205467ffffffffffffffff81118015611fd057600080fd5b50604051908082528060200260200182016040528015611fff5781602001602082028036833780820191505090505b509050600080905060008090505b6004805490508110156120b0578473ffffffffffffffffffffffffffffffffffffffff166006600083815260200190815260200160002060009054906101000a900473ffffffffffffffffffffffffffffffffffffffff1673ffffffffffffffffffffffffffffffffffffffff1614156120a3578083838151811061208e57fe5b60200260200101818152505081806001019250505b808060010191505061200d565b508192505050919050565b6000806006600084815260200190815260200160002060009054906101000a900473ffffffffffffffffffffffffffffffffffffffff169050600073ffffffffffffffffffffffffffffffffffffffff168173ffffffffffffffffffffffffffffffffffffffff161415915050919050565b6000806006600084815260200190815260200160002060009054906101000a900473ffffffffffffffffffffffffffffffffffffffff1690508073ffffffffffffffffffffffffffffffffffffffff168473ffffffffffffffffffffffffffffffffffffffff1614806121d357508373ffffffffffffffffffffffffffffffffffffffff166121bb84610b37565b73ffffffffffffffffffffffffffffffffffffffff16145b806121e457506121e38185611ee3565b5b91505092915050565b60008082840190508381101561226b576040517f08c379a000000000000000000000000000000000000000000000000000000000815260040180806020018281038252601b8152602001807f536166654d6174683a206164646974696f6e206f766572666c6f77000000000081525060200191505060405180910390fd5b8091505092915050565b60006122b783836040518060400160405280601e81526020017f536166654d6174683a207375627472616374696f6e206f766572666c6f7700008152506128bf565b905092915050565b8173ffffffffffffffffffffffffffffffffffffffff166006600083815260200190815260200160002060009054906101000a900473ffffffffffffffffffffffffffffffffffffffff1673ffffffffffffffffffffffffffffffffffffffff1614612393576040517f08c379a00000000000000000000000000000000000000000000000000000000081526004018080602001828103825260188152602001807f4d75737420626520617661746865656572206f776e65722e000000000000000081525060200191505060405180910390fd5b61239c816120bb565b61240e576040517f08c379a00000000000000000000000000000000000000000000000000000000081526004018080602001828103825260198152602001807f41766174686565657220646f6573206e6f742065786973742e0000000000000081525060200191505060405180910390fd5b600073ffffffffffffffffffffffffffffffffffffffff166009600083815260200190815260200160002060009054906101000a900473ffffffffffffffffffffffffffffffffffffffff1673ffffffffffffffffffffffffffffffffffffffff16146124c95760006009600083815260200190815260200160002060006101000a81548173ffffffffffffffffffffffffffffffffffffffff021916908373ffffffffffffffffffffffffffffffffffffffff1602179055505b5050565b60008190506124df81601a800a61297f565b9050612596600560008581526020019081526020016000208054600181600116156101000203166002900480601f01602080910402602001604051908101604052809291908181526020018280546001816001161561010002031660029004801561258b5780601f106125605761010080835404028352916020019161258b565b820191906000526020600020905b81548152906001019060200180831161256e57829003601f168201915b5050505050826129c9565b505050565b60006125bc8473ffffffffffffffffffffffffffffffffffffffff16612c38565b6125c9576001905061277c565b60008473ffffffffffffffffffffffffffffffffffffffff1663150b7a02338887876040518563ffffffff1660e01b8152600401808573ffffffffffffffffffffffffffffffffffffffff1673ffffffffffffffffffffffffffffffffffffffff1681526020018473ffffffffffffffffffffffffffffffffffffffff1673ffffffffffffffffffffffffffffffffffffffff16815260200183815260200180602001828103825283818151815260200191508051906020019080838360005b838110156126a4578082015181840152602081019050612689565b50505050905090810190601f1680156126d15780820380516001836020036101000a031916815260200191505b5095505050505050602060405180830381600087803b1580156126f357600080fd5b505af1158015612707573d6000803e3d6000fd5b505050506040513d602081101561271d57600080fd5b8101908080519060200190929190505050905063150b7a0260e01b7bffffffffffffffffffffffffffffffffffffffffffffffffffffffff1916817bffffffffffffffffffffffffffffffffffffffffffffffffffffffff1916149150505b949350505050565b600084848484604051602001808581526020018481526020018373ffffffffffffffffffffffffffffffffffffffff1673ffffffffffffffffffffffffffffffffffffffff1681526020018281526020019450505050506040516020818303038152906040528051906020012060001c9050949350505050565b60008082840190508381101561287c576040517f08c379a000000000000000000000000000000000000000000000000000000000815260040180806020018281038252601b8152602001807f536166654d6174683a206164646974696f6e206f766572666c6f77000000000081525060200191505060405180910390fd5b8091505092915050565b60008282604051602001808381526020018281526020019250505060405160208183030381529060405280519060200120905092915050565b600083831115829061296c576040517f08c379a00000000000000000000000000000000000000000000000000000000081526004018080602001828103825283818151815260200191508051906020019080838360005b83811015612931578082015181840152602081019050612916565b50505050905090810190601f16801561295e5780820380516001836020036101000a031916815260200191505b509250505060405180910390fd5b5060008385039050809150509392505050565b60006129c183836040518060400160405280601881526020017f536166654d6174683a206d6f64756c6f206279207a65726f0000000000000000815250612c4b565b905092915050565b806008600082815260200190815260200160002060009054906101000a900460ff1615612a41576040517f08c379a0000000000000000000000000000000000000000000000000000000008152600401808060200182810382526027815260200180612e226027913960400191505060405180910390fd5b600460405180604001604052808581526020018481525090806001815401808255809150506001900390600052602060002090600202016000909190919091506000820151816000019080519060200190612a9d929190612d0c565b506020820151816001015550506000612abc6004805490506001612275565b905060016008600085815260200190815260200160002060006101000a81548160ff021916908315150217905550600073ffffffffffffffffffffffffffffffffffffffff166006600083815260200190815260200160002060009054906101000a900473ffffffffffffffffffffffffffffffffffffffff1673ffffffffffffffffffffffffffffffffffffffff1614612b5357fe5b336006600083815260200190815260200160002060006101000a81548173ffffffffffffffffffffffffffffffffffffffff021916908373ffffffffffffffffffffffffffffffffffffffff160217905550612bef600760003373ffffffffffffffffffffffffffffffffffffffff1673ffffffffffffffffffffffffffffffffffffffff1681526020019081526020016000205460016121ed565b600760003373ffffffffffffffffffffffffffffffffffffffff1673ffffffffffffffffffffffffffffffffffffffff1681526020019081526020016000208190555050505050565b600080823b905060008111915050919050565b6000808314158290612cf8576040517f08c379a00000000000000000000000000000000000000000000000000000000081526004018080602001828103825283818151815260200191508051906020019080838360005b83811015612cbd578082015181840152602081019050612ca2565b50505050905090810190601f168015612cea5780820380516001836020036101000a031916815260200191505b509250505060405180910390fd5b50828481612d0257fe5b0690509392505050565b828054600181600116156101000203166002900490600052602060002090601f016020900481019282601f10612d4d57805160ff1916838001178555612d7b565b82800160010185558215612d7b579182015b82811115612d7a578251825591602001919060010190612d5f565b5b509050612d889190612d8c565b5090565b612dae91905b80821115612daa576000816000905550600101612d92565b5090565b9056fe4d75737420696d706c6d656d656e74206f6e45524337323152656365697665642e4e6f7420656e6f756768204c494e4b202d2066696c6c20636f6e747261637420776974682066617563657443616e6e6f74207472616e7366657220746f207468652073616d6520616464726573732e4176617468656565722077697468207375636820646e6120616c7265616479206578697374732ea264697066735822122055ed8d1828eb99533ec2cf87d8afc56e18da8a5a28e028c2ef19798742d4a6b464736f6c63430006060033",
  "immutableReferences": {
    "920": [
      {
        "length": 32,
        "start": 3627
      },
      {
        "length": 32,
        "start": 7386
      }
    ],
    "922": [
      {
        "length": 32,
        "start": 6468
      },
      {
        "length": 32,
        "start": 7446
      }
    ]
  },
  "source": "// SPDX-License-Identifier: MIT\npragma solidity ^0.6.6;\n\n// Imports symbols from other files into the current contract.\n// In this case, a series of helper contracts from OpenZeppelin.\n// Learn more: https://solidity.readthedocs.io/en/v0.6.2/layout-of-source-files.html#importing-other-source-files\n\n// IERC721 is the ERC721 interface that we'll use to make Avatheeer ERC721 compliant\n// More about ERC721: https://eips.ethereum.org/EIPS/eip-721\nimport \"@openzeppelin/contracts/token/ERC721/IERC721.sol\";\n// IERC721Receiver must be implemented to accept safe transfers.\n// It is included on the ERC721 standard\nimport \"@openzeppelin/contracts/token/ERC721/IERC721Receiver.sol\";\n// ERC165 is used to declare interface support for IERC721\n// More about ERC165: https://eips.ethereum.org/EIPS/eip-165\nimport \"@openzeppelin/contracts/introspection/ERC165.sol\";\n// SafeMath will be used for every math operation\nimport \"@openzeppelin/contracts/math/SafeMath.sol\";\n// Address will provide functions such as .isContract verification\nimport \"@openzeppelin/contracts/utils/Address.sol\";\n// Chainlink oracle smart contract for vrf\nimport \"@chainlink/contracts/src/v0.6/VRFConsumerBase.sol\";\n\n// The `is` keyword is used to inherit functions and keywords from external contracts.\n// In this case, `Avatheeer` inherits from the `IERC721` and `ERC165` contracts.\n// Learn more: https://solidity.readthedocs.io/en/v0.6.2/contracts.html#inheritance\ncontract Avatheeers is IERC721, ERC165, VRFConsumerBase {\n    // Uses OpenZeppelin's SafeMath library to perform arithmetic operations safely.\n    // Learn more: https://docs.openzeppelin.com/contracts/3.x/api/math#SafeMath\n    using SafeMath for uint256;\n    // Use OpenZeppelin's Address library to validate whether an address is\n    // is a contract or not.\n    // Learn more: https://docs.openzeppelin.com/contracts/3.x/api/utils#Address\n    using Address for address;\n\n    // Required variables for chainlink operation\n    bytes32 internal keyHash;\n    uint256 internal fee;\n\n    // Constant state variables in Solidity are similar to other languages\n    // but you must assign from an expression which is constant at compile time.\n    // Learn more: https://solidity.readthedocs.io/en/v0.6.2/contracts.html#constant-state-variables\n    uint256 constant dnaDigits = 26;\n    uint256 constant dnaModulus = 26**dnaDigits;\n\n    // ERC165 identifier for the ERC721 interface got from\n    // bytes4(keccak256(\"onERC721Received(address,address,uint256,bytes)\"))\n    bytes4 private constant _ERC721_RECEIVED = 0x150b7a02;\n\n    // Struct types let you define your own type\n    // Learn more: https://solidity.readthedocs.io/en/v0.6.2/types.html#structs\n    struct Avatheeer {\n        string name;\n        uint256 dna;\n    }\n\n    // Creates an empty array of Avatheeer structs\n    Avatheeer[] public avatheeers;\n\n    // Mapping from requestId to avatheeer name\n    mapping(bytes32 => string) public requestIdToName;\n\n    // Mapping from id of Avatheeer to its owner's address\n    mapping(uint256 => address) public avatheeerToOwner;\n\n    // Mapping from owner's address to number of owned token\n    mapping(address => uint256) public ownerAvatheeerCount;\n\n    // Mapping to validate that dna is not already taken\n    mapping(uint256 => bool) public dnaAvatheeerExists;\n\n    // Mapping from token ID to approved address\n    mapping(uint256 => address) avatheeerApprovals;\n\n    // You can nest mappings, this example maps owner to operator approvals\n    mapping(address => mapping(address => bool)) private operatorApprovals;\n\n    // Check if Avatheeer is unique and doesn't exist yet\n    modifier isUnique(uint256 _dna) {\n        require(\n            !dnaAvatheeerExists[_dna],\n            \"Avatheeer with such dna already exists.\"\n        );\n        _;\n    }\n\n    /**\n     * Constructor inherits VRFConsumerBase\n     *\n     * Network: Rinkeby\n     * Chainlink VRF Coordinator address: 0xb3dCcb4Cf7a26f6cf6B120Cf5A73875B7BBc655B\n     * LINK token address:                0x01BE23585060835E02B77ef475b0Cc51aA1e0709\n     * Key Hash: 0x2ed0feb3e7fd2022120aa84fab1945545a9f2ffc9076fd6156fa96eaff4c1311\n     */\n    constructor()\n        public\n        VRFConsumerBase(\n            0xb3dCcb4Cf7a26f6cf6B120Cf5A73875B7BBc655B, // VRF Coordinator\n            0x01BE23585060835E02B77ef475b0Cc51aA1e0709 // LINK Token\n        )\n    {\n        keyHash = 0x2ed0feb3e7fd2022120aa84fab1945545a9f2ffc9076fd6156fa96eaff4c1311;\n        fee = 0.1 * 10**18; // 0.1 LINK\n    }\n\n    function createAvatheeer(string memory _name)\n        public\n        returns (bytes32 requestId)\n    {\n        require(\n            LINK.balanceOf(address(this)) > fee,\n            \"Not enough LINK - fill contract with faucet\"\n        );\n        uint256 seed = uint256(keccak256(abi.encodePacked(_name)));\n        bytes32 rId = requestRandomness(keyHash, fee, seed);\n        requestIdToName[rId] = _name;\n        return rId;\n    }\n\n    // Callback function used by VRF Coordinator\n    // Creates a random Avatheeer from string (name)\n    function fulfillRandomness(bytes32 requestId, uint256 randomness)\n        internal\n        override\n    {\n        uint256 dna = randomness;\n        dna = SafeMath.mod(dna, dnaModulus);\n        _createAvatheeer(requestIdToName[requestId], dna);\n    }\n\n    // Internal function to create a random Avatheeer from string (name) and DNA\n    function _createAvatheeer(string memory _name, uint256 _dna)\n        internal\n        // The `internal` keyword means this function is only visible\n        // within this contract and contracts that derive this contract\n        // Learn more: https://solidity.readthedocs.io/en/v0.6.2/contracts.html#visibility-and-getters\n        // `isUnique` is a function modifier that checks if the avatheeer already exists\n        // Learn more: https://solidity.readthedocs.io/en/v0.6.2/structure-of-a-contract.html#function-modifiers\n        isUnique(_dna)\n    {\n        // Adds Avatheeer to array of Avatheeers and get id\n        avatheeers.push(Avatheeer(_name, _dna));\n        uint256 id = SafeMath.sub(avatheeers.length, 1);\n\n        // Mark as existent avatheeer name and dna\n        dnaAvatheeerExists[_dna] = true;\n\n        // Checks that Avatheeer owner is the same as current user\n        // Learn more: https://solidity.readthedocs.io/en/v0.6.2/control-structures.html#error-handling-assert-require-revert-and-exceptions\n        assert(avatheeerToOwner[id] == address(0));\n\n        // Maps the Avatheeer to the owner\n        avatheeerToOwner[id] = msg.sender;\n        ownerAvatheeerCount[msg.sender] = SafeMath.add(\n            ownerAvatheeerCount[msg.sender],\n            1\n        );\n    }\n\n    // Returns array of Avatheeers found by owner\n    function getAvatheeersByOwner(address _owner)\n        public\n        view\n        returns (\n            // Functions marked as `view` promise not to modify state\n            // Learn more: https://solidity.readthedocs.io/en/v0.6.2/contracts.html#view-functions\n            uint256[] memory\n        )\n    {\n        // Uses the `memory` storage location to store values only for the\n        // lifecycle of this function call.\n        // Learn more: https://solidity.readthedocs.io/en/v0.6.2/introduction-to-smart-contracts.html#storage-memory-and-the-stack\n        uint256[] memory result = new uint256[](ownerAvatheeerCount[_owner]);\n        uint256 counter = 0;\n        for (uint256 i = 0; i < avatheeers.length; i++) {\n            if (avatheeerToOwner[i] == _owner) {\n                result[counter] = i;\n                counter++;\n            }\n        }\n        return result;\n    }\n\n    // Returns count of Avatheeers by address\n    function balanceOf(address _owner)\n        public\n        override\n        view\n        returns (uint256 _balance)\n    {\n        return ownerAvatheeerCount[_owner];\n    }\n\n    // Returns owner of the Avatheeer found by id\n    function ownerOf(uint256 _avatheeerId)\n        public\n        override\n        view\n        returns (address _owner)\n    {\n        address owner = avatheeerToOwner[_avatheeerId];\n        require(owner != address(0), \"Invalid Avatheeer ID.\");\n        return owner;\n    }\n\n    /**\n     * Safely transfers the ownership of a given token ID to another address\n     * If the target address is a contract, it must implement `onERC721Received`,\n     * which is called upon a safe transfer, and return the magic value\n     * `bytes4(keccak256(\"onERC721Received(address,address,uint256,bytes)\"))`;\n     * otherwise, the transfer is reverted.\n     */\n    function safeTransferFrom(\n        address from,\n        address to,\n        uint256 avatheeerId\n    ) public override {\n        // solium-disable-next-line arg-overflow\n        safeTransferFrom(from, to, avatheeerId, \"\");\n    }\n\n    // Transfers Avatheeer and ownership to other address\n    function transferFrom(\n        address _from,\n        address _to,\n        uint256 _avatheeerId\n    ) public override {\n        require(_from != address(0) && _to != address(0), \"Invalid address.\");\n        require(_exists(_avatheeerId), \"Avatheeer does not exist.\");\n        require(_from != _to, \"Cannot transfer to the same address.\");\n        require(\n            _isApprovedOrOwner(msg.sender, _avatheeerId),\n            \"Address is not approved.\"\n        );\n\n        ownerAvatheeerCount[_to] = SafeMath.add(ownerAvatheeerCount[_to], 1);\n        ownerAvatheeerCount[_from] = SafeMath.sub(ownerAvatheeerCount[_from], 1);\n        avatheeerToOwner[_avatheeerId] = _to;\n\n        // Emits event defined in the imported IERC721 contract\n        emit Transfer(_from, _to, _avatheeerId);\n        _clearApproval(_to, _avatheeerId);\n    }\n\n    // Checks if Avatheeer exists\n    function _exists(uint256 avatheeerId) internal view returns (bool) {\n        address owner = avatheeerToOwner[avatheeerId];\n        return owner != address(0);\n    }\n\n    // Checks if address is owner or is approved to transfer Avatheeer\n    function _isApprovedOrOwner(address spender, uint256 avatheeerId)\n        internal\n        view\n        returns (bool)\n    {\n        address owner = avatheeerToOwner[avatheeerId];\n        // Disable solium check because of\n        // https://github.com/duaraghav8/Solium/issues/175\n        // solium-disable-next-line operator-whitespace\n        return (spender == owner ||\n            getApproved(avatheeerId) == spender ||\n            isApprovedForAll(owner, spender));\n    }\n\n    /**\n     * Private function to clear current approval of a given token ID\n     * Reverts if the given address is not indeed the owner of the token\n     */\n    function _clearApproval(address owner, uint256 _avatheeerId) private {\n        require(\n            avatheeerToOwner[_avatheeerId] == owner,\n            \"Must be avatheeer owner.\"\n        );\n        require(_exists(_avatheeerId), \"Avatheeer does not exist.\");\n        if (avatheeerApprovals[_avatheeerId] != address(0)) {\n            avatheeerApprovals[_avatheeerId] = address(0);\n        }\n    }\n\n    // Approves other address to transfer ownership of Avatheeer\n    function approve(address _to, uint256 _avatheeerId) public override {\n        require(\n            msg.sender == avatheeerToOwner[_avatheeerId],\n            \"Must be the Avatheeer owner.\"\n        );\n        avatheeerApprovals[_avatheeerId] = _to;\n        emit Approval(msg.sender, _to, _avatheeerId);\n    }\n\n    // Returns approved address for specific Avatheeer\n    function getApproved(uint256 _avatheeerId)\n        public\n        override\n        view\n        returns (address operator)\n    {\n        require(_exists(_avatheeerId), \"Avatheeer does not exist.\");\n        return avatheeerApprovals[_avatheeerId];\n    }\n\n    /*\n     * Sets or unsets the approval of a given operator\n     * An operator is allowed to transfer all tokens of the sender on their behalf\n     */\n    function setApprovalForAll(address to, bool approved) public override {\n        require(to != msg.sender, \"Cannot approve own address\");\n        operatorApprovals[msg.sender][to] = approved;\n        emit ApprovalForAll(msg.sender, to, approved);\n    }\n\n    // Tells whether an operator is approved by a given owner\n    function isApprovedForAll(address owner, address operator)\n        public\n        override\n        view\n        returns (bool)\n    {\n        return operatorApprovals[owner][operator];\n    }\n\n    /**\n     * Safely transfers the ownership of a given token ID to another address\n     * If the target address is a contract, it must implement `onERC721Received`,\n     * which is called upon a safe transfer, and return the magic value\n     * `bytes4(keccak256(\"onERC721Received(address,address,uint256,bytes)\"))`;\n     * otherwise, the transfer is reverted.\n     */\n    function safeTransferFrom(\n        address from,\n        address to,\n        uint256 avatheeerId,\n        bytes memory _data\n    ) public override {\n        transferFrom(from, to, avatheeerId);\n        require(\n            _checkOnERC721Received(from, to, avatheeerId, _data),\n            \"Must implmement onERC721Received.\"\n        );\n    }\n\n    /**\n     * Internal function to invoke `onERC721Received` on a target address\n     * The call is not executed if the target address is not a contract\n     */\n    function _checkOnERC721Received(\n        address from,\n        address to,\n        uint256 avatheeerId,\n        bytes memory _data\n    ) internal returns (bool) {\n        if (!to.isContract()) {\n            return true;\n        }\n\n        bytes4 retval = IERC721Receiver(to).onERC721Received(\n            msg.sender,\n            from,\n            avatheeerId,\n            _data\n        );\n        return (retval == _ERC721_RECEIVED);\n    }\n\n    // Burns a Avatheeer - destroys Token completely\n    // The `external` function modifier means this function is\n    // part of the contract interface and other contracts can call it\n    function burn(uint256 _avatheeerId) external {\n        require(msg.sender != address(0), \"Invalid address.\");\n        require(_exists(_avatheeerId), \"Avatheeer does not exist.\");\n        require(\n            _isApprovedOrOwner(msg.sender, _avatheeerId),\n            \"Address is not approved.\"\n        );\n\n        ownerAvatheeerCount[msg.sender] = SafeMath.sub(\n            ownerAvatheeerCount[msg.sender],\n            1\n        );\n        avatheeerToOwner[_avatheeerId] = address(0);\n    }\n\n    // Takes ownership of Avatheeer - only for approved users\n    function takeOwnership(uint256 _avatheeerId) public {\n        require(\n            _isApprovedOrOwner(msg.sender, _avatheeerId),\n            \"Address is not approved.\"\n        );\n        address owner = ownerOf(_avatheeerId);\n        transferFrom(owner, msg.sender, _avatheeerId);\n    }\n}\n",
  "sourcePath": "/Users/ernestognw/avatheeer/contracts/Avatheeers.sol",
  "compiler": {
    "name": "solc",
    "version": "0.6.6+commit.6c089d02.Emscripten.clang"
  },
  "schemaVersion": "3.2.4",
  "updatedAt": "2020-09-27T21:20:33.732Z",
  "networkType": "ethereum",
  "devdoc": {
    "methods": {
      "requestRandomness(bytes32,uint256,uint256)": {
        "details": "See \"SECURITY CONSIDERATIONS\" above for more information on _seed.The fulfillRandomness method receives the output, once it's providedby the Oracle, and verified by the vrfCoordinator.The _keyHash must already be registered with the VRFCoordinator, andthe _fee must exceed the fee specified during registration of the_keyHash.The returned requestId can be used to distinguish responses to *concurrent requests. It is passed as the first argument tofulfillRandomness.",
        "params": {
          "_fee": "The amount of LINK to send with the request",
          "_keyHash": "ID of public key against which randomness is generated",
          "_seed": "seed mixed into the input of the VRF"
        },
        "returns": {
          "requestId": "unique ID for this request"
        }
      },
      "supportsInterface(bytes4)": {
        "details": "See {IERC165-supportsInterface}.     * Time complexity O(1), guaranteed to always use less than 30 000 gas."
      }
    }
  },
  "userdoc": {
    "methods": {
      "constructor": "Constructor inherits VRFConsumerBase     * Network: Rinkeby Chainlink VRF Coordinator address: 0xb3dCcb4Cf7a26f6cf6B120Cf5A73875B7BBc655B LINK token address:                0x01BE23585060835E02B77ef475b0Cc51aA1e0709 Key Hash: 0x2ed0feb3e7fd2022120aa84fab1945545a9f2ffc9076fd6156fa96eaff4c1311",
      "requestRandomness(bytes32,uint256,uint256)": {
        "notice": "requestRandomness initiates a request for VRF output given _seed"
      },
      "safeTransferFrom(address,address,uint256)": {
        "notice": "Safely transfers the ownership of a given token ID to another address If the target address is a contract, it must implement `onERC721Received`, which is called upon a safe transfer, and return the magic value `bytes4(keccak256(\"onERC721Received(address,address,uint256,bytes)\"))`; otherwise, the transfer is reverted."
      },
      "safeTransferFrom(address,address,uint256,bytes)": {
        "notice": "Safely transfers the ownership of a given token ID to another address If the target address is a contract, it must implement `onERC721Received`, which is called upon a safe transfer, and return the magic value `bytes4(keccak256(\"onERC721Received(address,address,uint256,bytes)\"))`; otherwise, the transfer is reverted."
      }
    }
  }
}